:100000000C945E000C9486000C9486000C94860080
:100010000C9486000C9486000C9486000C94860048
:100020000C9486000C9486000C9486000C94860038
:100030000C9486000C9486000C9486000C94860028
:100040000C9446020C9486000C94B6020C94900218
:100050000C9486000C9486000C9486000C94860008
:100060000C9486000C9486000000000024002700F9
:100070002A0000000000250028002B0004040404CE
:100080000404040402020202020203030303030342
:10009000010204081020408001020408102001021F
:1000A00004081020000000080002010000030407FB
:1000B0000000000000000000E802B60411241FBE8A
:1000C000CFEFD8E0DEBFCDBF21E0ACE1B1E001C0B1
:1000D0001D92AD3CB207E1F711E0A0E0B1E0E6EF20
:1000E000FDE002C005900D92AC31B107D9F710E0E8
:1000F000CDE5D0E004C02197FE010E94F604CC3586
:10010000D107C9F70E945E030C94EE060C94000020
:10011000EFEAF0E02491EBE9F0E09491E7E8F0E019
:10012000E491EE23C9F0222339F0233001F1A8F441
:10013000213019F1223029F1F0E0EE0FFF1FEE58C7
:10014000FF4FA591B4912FB7F894EC91811126C07F
:1001500090959E239C932FBF08952730A9F02830B7
:10016000C9F0243049F7209180002F7D03C02091F1
:1001700080002F7720938000DFCF24B52F7724BD18
:10018000DBCF24B52F7DFBCF2091B0002F772093BC
:10019000B000D2CF2091B0002F7DF9CF9E2BDACFC7
:1001A0000895AF92BF92CF92DF92EF92FF920F939A
:1001B0001F93CF93DF936C017B018B01040F151FFD
:1001C000EB015E01AE18BF08C017D10759F0699165
:1001D000D601ED91FC910190F081E02DC6010995C9
:1001E000892B79F7C501DF91CF911F910F91FF9076
:1001F000EF90DF90CF90BF90AF900895FC01538DAA
:10020000448D252F30E0842F90E0821B930B5417F0
:1002100010F0CF96089501970895FC01918D828D7D
:10022000981761F0A28DAE0FBF2FB11D5D968C9116
:10023000928D9F5F9F73928F90E008958FEF9FEF55
:1002400008952FB7F8948091220190912301A091F5
:100250002401B09125012FBF80932E0190932F018F
:10026000A0933001B093310186E291E00E940D012C
:1002700097FF26C02FB7F894809122019091230117
:10028000A0912401B09125012FBF40912E015091E2
:100290002F016091300170913101841B950BA60BE9
:1002A000B70B40912A0150912B0160912C01709164
:1002B0002D0184179507A607B707B0F28FEF9FEFC0
:1002C0000895FC01918D828D981731F0828DE80F91
:1002D000F11D858D90E008958FEF9FEF0895FC014B
:1002E000918D228D892F90E0805C9F4F821B910918
:1002F0008F739927089586E291E00E946F0121E0B3
:10030000892B09F420E0822F089580E090E0892B6A
:1003100029F00E947B0181110C9400000895FC01DA
:10032000A48DA80FB92FB11DA35ABF4F2C91848D56
:1003300090E001968F739927848FA689B7892C93B3
:10034000A089B1898C91837080648C93938D848D06
:10035000981306C00288F389E02D80818F7D808309
:100360000895EF92FF920F931F93CF93DF93EC01C9
:1003700081E0888F9B8D8C8D98131AC0E889F9894C
:10038000808185FF15C09FB7F894EE89FF8960834F
:10039000E889F98980818370806480839FBF81E0D0
:1003A00090E0DF91CF911F910F91FF90EF90089512
:1003B000F62E0B8D10E00F5F1F4F0F731127E02EED
:1003C0008C8D8E110CC00FB607FCFACFE889F98925
:1003D000808185FFF5CFCE010E948F01F1CFEB8D9B
:1003E000EC0FFD2FF11DE35AFF4FF0829FB7F894F9
:1003F0000B8FEA89FB8980818062CFCFCF93DF9317
:10040000EC01888D8823B9F0AA89BB89E889F9892C
:100410008C9185FD03C0808186FD0DC00FB607FC61
:10042000F7CF8C9185FFF2CF808185FFEDCFCE0194
:100430000E948F01E9CFDF91CF9108950F931F9311
:10044000CF93DF93EC0188819981009759F02A813D
:100450003B812617370730F081E0DF91CF911F9164
:100460000F9108958B016F5F7F4F0E9421060097C7
:1004700059F0998388831B830A832C813D81232B28
:1004800059F7FC011082E8CF80E0E7CF1F920F926E
:100490000FB60F9211242F933F938F939F93AF9397
:1004A000BF938091220190912301A0912401B091EA
:1004B00025013091210123E0230F2D3758F50196B6
:1004C000A11DB11D2093210180932201909323014E
:1004D000A0932401B093250180911D0190911E01EC
:1004E000A0911F01B09120010196A11DB11D809323
:1004F0001D0190931E01A0931F01B0932001BF9195
:10050000AF919F918F913F912F910F900FBE0F90C0
:100510001F90189526E8230F0296A11DB11DD2CF7A
:100520001F920F920FB60F9211242F933F934F9368
:100530005F936F937F938F939F93AF93BF93EF934B
:10054000FF9386E291E00E948F01FF91EF91BF91AE
:10055000AF919F918F917F916F915F914F913F915B
:100560002F910F900FBE0F901F9018951F920F9212
:100570000FB60F9211242F938F939F93EF93FF93B6
:10058000E0913601F09137018081E0913C01F091DA
:100590003D0182FD1BC0908180913F018F5F8F7371
:1005A00020914001821741F0E0913F01F0E0EA5DC7
:1005B000FE4F958F80933F01FF91EF919F918F9117
:1005C0002F910F900FBE0F901F9018958081F4CF40
:1005D000109229011092280188EE93E0A0E0B0E08B
:1005E00080932A0190932B01A0932C01B0932D01AD
:1005F0008AE091E0909327018093260185EC90E0BA
:10060000909333018093320184EC90E09093350114
:100610008093340180EC90E0909337018093360111
:1006200081EC90E0909339018093380182EC90E066
:1006300090933B0180933A0186EC90E090933D01CA
:1006400080933C0110923F011092400110924101B1
:10065000109242011092C4011092C3011092C6017F
:100660001092C5011092C8011092C70170E060E0BD
:1006700083EC91E00E941E022091C3013091C401DD
:10068000811113C02115310519F0C9010E94980587
:100690001092C4011092C3011092C8011092C701B8
:1006A0001092C6011092C50108951092C8011092CF
:1006B000C7016BE171E0C9010C94E706CF93DF93AA
:1006C000CDB7DEB728970FB6F894DEBF0FBECDBF0B
:1006D000789484B5826084BD84B5816084BD85B51D
:1006E000826085BD85B5816085BD80916E00816029
:1006F00080936E00109281008091810082608093CF
:1007000081008091810081608093810080918000D0
:100710008160809380008091B10084608093B100FB
:100720008091B00081608093B00080917A008460F5
:1007300080937A0080917A00826080937A00809121
:100740007A00816080937A0080917A00806880933B
:100750007A001092C100E0913601F091370182E0F9
:100760008083E0913201F09133011082E0913401F5
:10077000F09135018FEC808310923E01E0913A01B7
:10078000F0913B0186E08083E0913801F0913901DE
:10079000808180618083E0913801F091390180810E
:1007A00088608083E0913801F09139018081806810
:1007B0008083E0913801F091390180818F7D8083C1
:1007C000EBE9F0E02491E7E8F0E08491882399F0E8
:1007D00090E0880F991FFC01E859FF4FA591B49153
:1007E000FC01EE58FF4F859194918FB7F894EC91EE
:1007F000E22BEC938FBF80E0E82E80E0F82E86E2BB
:1008000091E00E946F01892B09F489C01A82198234
:100810001C821B821E821D8270E060E0CE01019668
:100820000E941E0229813A8181112BC021153105B8
:1008300019F0C9010E9498051A8219821E821D8230
:100840001C821B820E94210197FD23C08F83188682
:100850000D811E810F5F1F4FB801CE0101960E94CE
:100860001E02882379F329813A818D819E81BE0100
:10087000695F7F4F820F931F0E94E7061E830D83DF
:10088000E1CF1E821D826BE171E0C9010E94E70683
:10089000D9CF8091C3019091C401009709F44DC054
:1008A00069817A816115710509F445C04091C501DE
:1008B0005091C6012D813E8142175307E0F10E94FD
:1008C000E7068D819E819093C8018093C7011E82A7
:1008D0001D8289819A81009711F00E94980580916C
:1008E000C7019091C801892B09F43EC0E091C30172
:1008F000F091C4013097C1F1008100931C01002EDA
:10090000000C110B81E00831180719F481E00E94F6
:1009100088000A51114019F480E00E948800E11417
:10092000F10409F46CCF0E947B01882309F467CF9E
:100930000E94000064CF0E94980589819A8190935B
:10094000C4018093C3018B819C819093C6018093E5
:10095000C5018D819E819093C8018093C7011A8241
:1009600019821C821B82B3CF00E0C7CF8091C301E4
:100970009091C401009711F00C94980508952F925E
:100980003F924F925F926F927F928F929F92AF921F
:10099000BF92CF92DF92EF92FF920F931F93CF936C
:1009A000DF93CDB7DEB7CA1BDB0B0FB6F894DEBF03
:1009B0000FBECDBF09942A88398848885F846E8429
:1009C0007D848C849B84AA84B984C884DF80EE8073
:1009D000FD800C811B81AA81B981CE0FD11D0FB67C
:1009E000F894DEBF0FBECDBFED010895EE0FFF1FDF
:1009F0000590F491E02D09940F931F93CF93DF930B
:100A00008230910510F482E090E0E091CB01F0910A
:100A1000CC0130E020E0B0E0A0E0309799F421155F
:100A2000310509F44AC0281B390B24303105D8F5AB
:100A30008A819B816115710589F1FB019383828312
:100A4000FE0111C04081518102811381481759076D
:100A5000E0F04817590799F4109761F012960C933B
:100A6000129713961C933296CF01DF91CF911F916D
:100A70000F9108950093CB011093CC01F4CF211571
:100A8000310551F04217530738F0A901DB019A01F3
:100A9000BD01DF01F801C1CFEF01F9CF9093CC0187
:100AA0008093CB01CDCFFE01E20FF31F8193919391
:100AB0002250310939832883D7CF2091C901309141
:100AC000CA01232B41F4209102013091030130939C
:100AD000CA012093C9012091000130910101211523
:100AE000310541F42DB73EB7409104015091050105
:100AF000241B350BE091C901F091CA01E217F307FD
:100B0000A0F42E1B3F0B2817390778F0AC014E5F7D
:100B10005F4F2417350748F04E0F5F1F5093CA01EF
:100B20004093C901819391939FCFF0E0E0E09CCF87
:100B3000CF93DF930097E9F0FC0132971382128282
:100B4000A091CB01B091CC01ED0130E020E01097F5
:100B5000A1F420813181820F931F2091C90130912E
:100B6000CA012817390709F061C0F093CA01E09360
:100B7000C901DF91CF910895EA01CE17DF07E8F5AB
:100B80004A815B819E0141155105B1F7E901FB8363
:100B9000EA8349915991C40FD51FEC17FD0761F401
:100BA000808191810296840F951FE9019983888342
:100BB000828193819B838A83F0E0E0E012968D919D
:100BC0009C9113970097B9F52D913C911197CD0108
:100BD0000296820F931F2091C9013091CA012817F4
:100BE000390739F6309751F51092CC011092CB01AC
:100BF000B093CA01A093C901BCCFD383C283408103
:100C00005181840F951FC817D90761F44E5F5F4F5C
:100C100088819981480F591F518340838A819B8124
:100C2000938382832115310509F0B0CFF093CC0175
:100C3000E093CB019ECFFD01DC01C0CF1382128275
:100C4000D7CFB0E0A0E0E7E2F6E00C94C1048C015D
:100C5000009751F4CB010E94FC048C01C801CDB770
:100C6000DEB7E0E10C94DD04FC01E60FF71F9C0108
:100C700022503109E217F30708F49DC0D901CD9144
:100C8000DC911197C617D70798F0C530D10530F31E
:100C9000CE0104978617970708F3C61BD70B229738
:100CA000C193D1936D937C93CF010E949805D6CFC9
:100CB0005B01AC1ABD0A4C018C0E9D1EA091CB01AC
:100CC000B091CC01512C412CF12CE12C109731F535
:100CD0008091C9019091CA018815990509F05CC0FD
:100CE0004616570608F058C0809100019091010106
:100CF000009741F48DB79EB74091040150910501D2
:100D0000841B950BE817F90708F055C0F093CA014A
:100D1000E093C901F90171836083A0CF8D919C910B
:100D2000119712966C90129713967C901397A815B2
:100D3000B90559F56C0142E0C40ED11CCA14DB049C
:100D400020F1AC014A195B09DA011296159780F07F
:100D50006282738251834083D9016D937C93E11445
:100D6000F10471F0D7011396FC93EE93129776CFAE
:100D700022968C0F9D1FF90191838083F301EFCFA1
:100D8000F093CC01E093CB0169CF4816590608F4E3
:100D90002C017D01D3019ACFCB010E94FC047C0180
:100DA000009749F0AE01B8010E94DE06C8010E941A
:100DB0009805870153CF10E000E050CFFB01DC0124
:100DC00002C001900D9241505040D8F70895FB01A8
:100DD000DC0101900D920020E1F7089510E0CDE5CF
:100DE000D0E004C0FE010E94F6042196CE35D10762
:060DF000C9F7F894FFCFE3
:100DF6000000CD01800000000000B101D100FE001E
:0C0E0600FE016F010D0161014F0046006C
:00000001FF
